:020000040000fa
:080000000001040000000000f3
:020000040000fa
:0400080010030000e1
:020000040000fa
:04000c0018030000d5
:020000040000fa
:0400100028030000c1
:020000040000fa
:0400140028030000bd
:020000040000fa
:0400180020030000c1
:020000040000fa
:04001c0028030000b5
:020000040000fa
:0400200028030000b1
:020000040000fa
:0400240028030000ad
:020000040000fa
:0400280028030000a9
:020000040000fa
:04002c0028030000a5
:020000040000fa
:0400300028030000a1
:020000040000fa
:040034002e02000098
:020000040000fa
:040038002803000099
:020000040000fa
:04003c002803000095
:020000040000fa
:040040002803000091
:020000040000fa
:040044007202000044
:020000040000fa
:040048002803000089
:020000040000fa
:04004c002803000085
:020000040000fa
:040050002803000081
:020000040000fa
:0400540004020000a2
:020000040000fa
:040058002803000079
:020000040000fa
:04005c002803000075
:020000040000fa
:040060002803000071
:020000040000fa
:04006400280300006d
:020000040000fa
:040068002803000069
:020000040000fa
:04006c002803000065
:020000040000fa
:040070002803000061
:020000040000fa
:04007400280300005d
:020000040000fa
:040078002803000059
:020000040000fa
:04007c002803000055
:020000040000fa
:040080002803000051
:020000040000fa
:04008400280300004d
:020000040000fa
:040088002803000049
:020000040000fa
:04008c002803000045
:020000040000fa
:040090002803000041
:020000040000fa
:04009400280300003d
:020000040000fa
:040098002803000039
:020000040000fa
:04009c002803000035
:020000040000fa
:0400a0002803000031
:020000040000fa
:0400a400280300002d
:020000040000fa
:0400a8002803000029
:020000040000fa
:0400ac002803000025
:020000040000fa
:0400b0002803000021
:020000040000fa
:0400b400280300001d
:020000040000fa
:0400b8002803000019
:020000040000fa
:0400bc002803000015
:020000040000fa
:0400c0002803000011
:020000040000fa
:0400c400280300000d
:020000040000fa
:0400c8002803000009
:020000040000fa
:0400cc002803000005
:020000040000fa
:0400d0002803000001
:020000040000fa
:0400d40028030000fd
:020000040000fa
:0400d80028030000f9
:020000040000fa
:0400dc0028030000f5
:020000040000fa
:0400e00028030000f1
:020000040000fa
:0400e40028030000ed
:020000040000fa
:0400e80028030000e9
:020000040000fa
:0400ec0028030000e5
:020000040000fa
:0400f00028030000e1
:020000040000fa
:0400f40028030000dd
:020000040000fa
:0400f80028030000d9
:020000040000fa
:0400fc0028030000d5
:020000040000fa
:0401000028030000d0
:020000040000fa
:0401040028030000cc
:020000040000fa
:0401080028030000c8
:020000040000fa
:04010c0028030000c4
:020000040000fa
:0401100028030000c0
:020000040000fa
:0401140028030000bc
:020000040000fa
:0401180028030000b8
:020000040000fa
:04011c0028030000b4
:020000040000fa
:0401200028030000b0
:020000040000fa
:0401240028030000ac
:020000040000fa
:0401280028030000a8
:020000040000fa
:04012c0028030000a4
:020000040000fa
:0401300028030000a0
:020000040000fa
:04013400280300009c
:020000040000fa
:040138002803000098
:020000040000fa
:04013c002803000094
:020000040000fa
:040140002803000090
:020000040000fa
:04014400280300008c
:020000040000fa
:040148002803000088
:020000040000fa
:04014c002803000084
:020000040000fa
:040150002803000080
:020000040000fa
:04015400280300007c
:020000040000fa
:040158002803000078
:020000040000fa
:04015c002803000074
:020000040000fa
:040160002803000070
:020000040000fa
:04016400280300006c
:020000040000fa
:040168002803000068
:020000040000fa
:04016c002803000064
:020000040000fa
:040170002803000060
:020000040000fa
:04017400280300005c
:020000040000fa
:040178002803000058
:020000040000fa
:04017c002803000054
:020000040000fa
:040180002803000050
:020000040000fa
:04018400280300004c
:020000040000fa
:040188002803000048
:020000040000fa
:04018c002803000044
:020000040000fa
:040190002803000040
:020000040000fa
:04019400280300003c
:020000040000fa
:040198002803000038
:020000040000fa
:04019c002803000034
:020000040000fa
:0401a0002803000030
:020000040000fa
:0401a400280300002c
:020000040000fa
:0401a8002803000028
:020000040000fa
:0401ac002803000024
:020000040000fa
:0401b0002803000020
:020000040000fa
:0401b400280300001c
:020000040000fa
:0401b8002803000018
:020000040000fa
:0401bc002803000014
:020000040000fa
:0401c0002803000010
:020000040000fa
:0401c400280300000c
:020000040000fa
:0401c8002803000008
:020000040000fa
:0401cc002803000004
:020000040000fa
:0401d0002803000000
:020000040000fa
:0401d40028030000fc
:020000040000fa
:0401d80028030000f8
:020000040000fa
:0401dc0028030000f4
:020000040000fa
:0401e00028030000f0
:020000040000fa
:0401e40028030000ec
:020000040000fa
:0401e80028030000e8
:020000040000fa
:0401ec0028030000e4
:020000040000fa
:0401f00028030000e0
:020000040000fa
:0401f40028030000dc
:020000040000fa
:0401f80028030000d8
:020000040000fa
:0401fc0028030000d4
:020000040000fa
:100200000fa120000eff27000e0188000000000053
:10021000000020000000e000020032000001200089
:100220002002880014000700150107000000e0000c
:1002300003003a00800d2200010020000200370078
:100240000000200001002000810f7000010032003a
:1002500014000700000020000000e000020032004f
:100260000000020000000000182002000000000052
:100270000040da000000fe004440a90020002000f9
:100280000000e00003003200100020009001880010
:100290004440a800000006008a1f78008b1f7800e9
:1002a00000000600a1028800800478000000eb0036
:1002b0001f003700e284440054a0b4009905ba003e
:1002c000e284440054a0b4009906ba00e2844400d9
:1002d00054a0b4000006eb00476fde00fd07b2003b
:1002e000ae018800636ce10003003a00eaff0700fa
:1002f0000000eb000e003700606ce10008003a00df
:10030000004deb000a05e800020039003420ec0043
:100310000af0a0008b05e900f9ff3e000400370059
:100320006168e100010032000086eb000b0007006d
:1003300019c7ba001905ba000e04e00003003a001c
:100340000a00e000dbff3a0000000600fe07b200f2
:10035000ae0288008a047800f5ff37000cd0a300b5
:10036000e20f4d001c00390089027800354dba00bb
:100370000a05e800020039003420ec000af0a00071
:100380008b05e9000f003200254dba000a05e80090
:10039000020039003420ec000af0a0008b05e900cf
:1003a000080032000c00e0000600320015cdba0053
:1003b0000a05e800020039003420ec000af0a00031
:1003c0008b05e9008984e80054a0b4000b00e0002c
:1003d000e2ff3a00000006009902ba00055d7800cd
:1003e0008b05e900f7ff3200c82ade00055d7800c2
:1003f0008b05e900f3ff32000c00e000f1ff320052
:1004000019ddba00eeff3700809fbe00821f780022
:100410000000fa0050408000f11c8000014178008b
:10042000c181200082707800504080000000e80008
:100430005040880051408000301f2000808f5000c5
:10044000010036000a28ef008960a9000080fa0048
:100450004f0178004f00be00004006003600f80053
:10046000809fbe00829fbe00849fbe00869fbe000c
:100470000000fa00d10707000dc8bf000004a20069
:100480000004e000090032000ec8bf000004a20012
:100490000004e000050032000fc8bf000004a20005
:1004a0000004e000010032008e26a8009040800089
:1004b00000004000e00c880010c0b3000de8b70059
:1004c000d00707008860a9000080fa004f03be0033
:1004d0004f02be004f01be004f00be003600f900c3
:1004e000004006003600f800809fbe00829fbe00dc
:1004f000849fbe00869fbe000000fa000dc8bf00aa
:100500000004e000140032000ec8bf000004a20086
:100510000004e000100032000fc8bf000004a20079
:100520000004e0000c0032008e26a9000d68ef00e8
:10053000ba07070088e0a9008e46a800a040800006
:1005400000004000e00c880010c0b3000ee8b700c7
:10055000ac0707002b0037000ec8bf000004e00006
:10056000140032000dc8bf000004a2000004e00027
:10057000100032000fc8bf000004a2000004e00019
:100580000c0032008e46a9000e68ef00a30707009a
:1005900088e0a9008e66a800b040800000004000fe
:1005a000e00c880010c0b3000fe8b7009507070003
:1005b000140037000fc8bf000004e0000f00320035
:1005c0000ec8bf000004a2000004e0000b003200cf
:1005d0000dc8bf000004a2000004e00007003200c4
:1005e0008e66a9000f68ef008c07070088e0a9005d
:1005f0008860a9006b070700020037008707070023
:1006000088e0a9000080fa004f03be004f02be0040
:100610004f01be004f00be003600f900004006004a
:100620003600f8008020a9000000eb0073060700e8
:100630003600f8008060a900200020006f06070047
:100640003600f8008080a900300020006b0607000b
:100650000040da000000fe000600fa00000f7800fb
:1006600011079800220798001e009000ae0090002d
:10067000930907002e0090000080fa000000060099
:1006800000000500889fbe008a9fbe008c1f780076
:10069000960007009d00330003866c006450e10063
:1006a0002e0032006420e100330032006150e1008e
:1006b0002f0032006120e1003100320085855500b5
:1006c000eb07b000090020000804200005003700f7
:1006d0000804440089844c000a00310006034300ea
:1006e00087834b000001530081815b00f8ff3300da
:1006f0000203be000800a0000804440089844c00e6
:10070000f6ff3900c639dd008301730001003200b5
:10071000130020008904d1000884d3000998a300a5
:10072000050032000800a7000300a0008904d100e2
:100730000884d3008b05e8008904d1000884d30025
:100740000001eb000281d2002d00070001f0a100a2
:100750000cf0a70001f0a000750037006420e10054
:10076000770032000801be000200be00f7ff37002c
:100770006120e100720032006000b800f3ff370032
:100780000000200001f82700f0ff37000001be0044
:10079000410007000470a70003f0a10003f8a300c4
:1007a00013003a006509b10010003200090035005d
:1007b0006928e10002003500010028000000050062
:1007c00000004000818048008502e900fcff3a00fb
:1007d00000000600f88f4200050035008100d100be
:1007e0000080d3008502e800fcff3a00000006000c
:1007f0008000eb00000005006011b80063003700c6
:1008000081002000618055000b003d000b0020009e
:1008100061fe2f000100e1001d00340082817100a3
:10082000610164008904d1000884d3000000e8005d
:10083000faff3a00710020006100640003007000bc
:10084000020060000900320061044400e0844c00b2
:100850000988a500050032008b05e8006808e10062
:1008600002003a008904d1000884d300f20f20006e
:100870000258e10005003d00c75ddd00f907b20048
:100880008980750008007800000006000bf827003a
:100890008b00780000000500c70ade00f107b200f7
:1008a000f50fb20008003200e1cf42000200320032
:1008b0000170a00024000500810f700001003200cb
:1008c0000408050044000500810f700002003a0092
:1008d000140005008502e9000000400081c04800c6
:1008e000fcff3b000170a000240005000004be00d6
:1008f000e9ff07000003be000405be000200be00c1
:10090000e5ff0700844f7500000006000200be00ee
:100910006450e100050036006420e100020036006a
:100920000968a30001003a000800be000160a000b1
:100930004f0678004f05be004f04be0000000600c1
:10094000f0ff2f00f1ff2700f9ff37006022b80009
:10095000060220000000d0008180d2000482d20074
:100960008582d2000000a0000202520083825a0059
:10097000030031000202420083824a000000a1000d
:100980000603e900f3ff3a0000000600889fbe005e
:100990008a9fbe0000827000040271000482710010
:1009a000260032000004be000200be006011b80044
:1009b0006b092000950220000182cf000a00390057
:1009c0000541b1000082cf00070039000541b100a8
:1009d0000982cf00040039000541b1000882cf0030
:1009e000010039000541b1000542520012003200f9
:1009f0000a003b0082817100610164008100d10026
:100a00000080d3008984d3000884d3008b05e800dc
:100a10000442e800f7ff3a000700370008044400ea
:100a200089844c0000004800818048008b05e90063
:100a30000442e900f9ff3a0071ff07004f05be00cc
:100a40004f04be000000060080007800010178001d
:100a50003104e000fdff3a000000510000000600f4
:020000040000fa
:100a60000800fa0020079800614798000000eb009a
:100a7000000f78000040eb00204798000040eb009a
:100a8000304798000040eb002047980020003700d6
:100a90002e4090000080fb00ae00900000804000df
:100aa000104078000080fb004800dd001e0f680049
:100ab0000040eb00304798000f0037001e00780020
:100ac0000000e00006003d001e007800000040002d
:100ad0008000780010022100008f680003003700ba
:100ae0001e00780000004000000f78003e4090009b
:100af0000040e800304798003e409000e74f50002b
:100b0000eeff36002e4090000040e800204798009d
:100b1000ae4090006e40900080cf5000dcff390066
:100b20001e0078000080fa00000006008200fa0033
:100b3000889fbe008a9fbe008c9fbe003037980001
:100b400041379800523798006337980074379800ff
:100b5000053f9800163f9800273f9800af06070012
:100b600030c4b300004f780050c2b3001047980063
:100b70003e309000ce3090004808de0020479800bc
:100b80003e309000ce3090004008de0030479800a4
:100b90003e309000ce3090004809dd004800de0075
:100ba00000007100c808de00404798003e30900009
:100bb000504798005e309000ee3090004808de000c
:100bc000604798005e309000ee3090004008de00f4
:100bd000704798005e309000ee309000c809dd004c
:100be0004800de0000807100c808de00004f980059
:100bf0005e309000104f98007e3090008e3890004c
:100c0000488ade00343f98004f8cde00483f980051
:100c1000eef09000214f98007e3090008e389000ca
:100c20004089de00523f9800cf89de00633f980084
:100c30002efa9000344f98007e3090008e3890004d
:100c40004809dd004804de0008047100783f980080
:100c5000c889de00038798006efa9000444f980020
:100c60007e309000504f98001e389000ae389000b3
:100c70004808de00604f98001e389000ae389000a3
:100c80004008de00704f98001e389000ae3890008b
:100c9000480cdd004800de0000007400c808de00db
:100ca000005798001e389000105798003eb89700e3
:100cb000ceb89700488ede00cf8ede002c5798000d
:100cc0003eb89700ceb89700408dde00cf8dde0095
:100cd0003a5798003eb89700ceb897004809dd0013
:100ce0004804de0008047100c88cde0048579800f4
:100cf0003eb89700505798001eb89700aeb89700be
:100d00004808de00605798001eb89700aeb89700fc
:100d10004008de00705798001eb89700aeb89700e4
:100d2000c809dd004800de0000807100c808de0050
:100d3000005f98001eb89700105f9800ae4b9000bf
:100d40003e4b9000ce4a90005e4a9000ae5190001b
:100d50003e519000ce5090005e50900008c8b30005
:100d6000685f98001e447800785f98002e449000d9
:100d7000086798003e449000186798004e44900021
:100d8000286798005e44900038679800476798008d
:100d90005667980065679800746798006e429000e7
:100da000046f98007e449000186f98000e4a9000df
:100db000246f98001e4c9000386f98006e4a900087
:100dc000446f98007e4c9000586f98000e5290002f
:100dd000646f98001e549000786f98002e42900027
:100de000047798003e449000187798004e42900097
:100df000247798005e4490003877980043779800f5
:100e0000527798006177980070779800ee409000d4
:100e1000017f98007e419000127f98008e499000db
:100e2000237f98001e4a9000347f98006e549000f3
:100e3000487f9800fe509000517f98000e59900016
:100e4000627f98009e599000737f98000ef2970081
:100e500004c798001e40900080c0e9007e00470053
:100e6000fffe0700500f98005e089000405f98005a
:100e70005e0890004800de00505f9800ae4b900086
:100e80003e4b9000ce4a90005e4a9000ae519000da
:100e90003e519000ce5090005e50900008c8b300c4
:100ea00018c798001e44780028c798002e44900068
:100eb00038c798003e44900048c798004e449000c0
:100ec00058c798005e44900068c7980077c798009c
:100ed00006cf980015cf980024cf98006e4290005e
:100ee00034cf98007e44900048cf98000e4a90007e
:100ef00054cf98001e4c900068cf98006e4a900026
:100f000074cf98007e4c900008d798000e52900045
:100f100014d798001e54900028d798002e429000b5
:100f200034d798003e44900048d798004e42900035
:100f300054d798005e44900068d7980073d7980003
:100f400002df980011df980020df9800ee4090004b
:100f500031df98007e41900042df98008e4990007a
:100f600053df98001e4a900064df98006e54900092
:100f700078df9800fe50900001e798000e5990002d
:100f800012e798009e59900023e798000ef2970010
:100f900034e798005e5c900048e79800ce589000d7
:100fa00051e7980010c0b30010e8b700100420000b
:100fb0000e004000800078001e409000ad04070045
:100fc00010c0b3004f06be004f05be004f04be0068
:100fd0000080fa00000006004400fa00889fbe006e
:100fe0008a9fbe008c9fbe00001f9800111f9800b2
:100ff000221f9800331f9800441f9800551f980027
:1010000080c2b300004f780000c1b30010479800c1
:101010000e1890009e1890004808de0020479800a7
:101020000e1890009e1890004008de00304798008f
:101030000e1890009e1890004809dd004800de0060
:1010400000007100c808de00404798000e189000ac
:10105000504798002e189000be189000488cde0073
:10106000681f98004f89de00721f98004e7c900028
:10107000684798002e189000be1890004089de0046
:10108000022798004f8cde00182798008ec0900031
:10109000714798002e189000be1890004809dd0096
:1010a0004806de000c067100c88ede000c4f98006a
:1010b0002e189000104f98004e189000de189000e7
:1010c000488dde00cf8dde002a4f98004e1890002c
:1010d000de189000408cde00cf8cde00384f980088
:1010e0004e189000de189000480cdd004803de002a
:1010f00006037400c88bde00464f98004e1890001f
:10110000504f9800ee4390007e4390008e4a90002e
:101110001e4a9000ae4990003e499000ce48900093
:101120005e48900008c8b300285798001e44780015
:10113000385798002e449000485798003e4490003d
:10114000585798004e449000685798005e449000ad
:1011500078579800075f9800165f9800255f980001
:10116000345f9800435f9800525f9800615f980079
:10117000705f98001e40900080c0e9007200470038
:1011800037fe0700700798007e0090000057980017
:101190007e0090004800de0010579800ee4390005b
:1011a0007e4390008e4a90001e4a9000ae49900007
:1011b0003e499000ce4890005e48900008c8b300b9
:1011c000086798001e447800186798002e44900025
:1011d000286798003e449000386798004e4490007d
:1011e000486798005e4490005867980067679800c9
:1011f00076679800056f9800146f9800236f980029
:10120000326f9800416f9800506f98009e50900088
:10121000616f98000e519000726f980000022000dc
:101220000e004000800078001e409000110407006e
:101230004f06be004f05be004f04be000080fa00fe
:10124000000006003000fa0060179800711798003f
:1012500080c2b300004f780000c1b300104798006f
:101260006e119000fe11900012079800230798005d
:101270001e009000ae0090004808de006047980015
:101280001e009000ae0090004008de0070479800fd
:101290001e009000ae009000c809dd004800de008e
:1012a00000807100c808de00004f98001e0090000a
:1012b000104f980000c8b300604f98009e4078001f
:1012c000714f98006e41900002579800fe419000c7
:1012d000135798008e489000215798001e4990009f
:1012e000325798000040eb00405798000040eb0058
:1012f000505798000040eb00605798000040eb000a
:10130000705798000040eb00005f98000040eb0031
:10131000105f98000040eb00205f98000040eb0059
:10132000305f98001e40900080c0e9006e004700ca
:10133000cbfd0700500798005e009000404f9800da
:101340005e0090004800de00504f980000c8b300d7
:10135000405f98009e417800535f9800ee409000f7
:10136000615f98007e419000725f98008e49900006
:10137000036798009e489000116798000040eb00ba
:10138000206798000040eb00306798000040eb00b9
:10139000406798000040eb00506798000040eb0069
:1013a000606798000040eb00706798000040eb0019
:1013b000006f98000040eb00106f98005e499000ad
:1013c000226f9800ce499000336f98007c00470050
:1013d000800078001e409000a60307000080fa00fd
:1013e000000006001400fa002057980010c0b30057
:1013f000004f7800e7004700030009008058eb0029
:1014000000c8b300704798009e407800014f9800d4
:10141000ae509000114f98006700470031c0b300f4
:101420008ffd0700100798001e00900040479800ad
:101430001e0090004800de0050479800eb00470077
:10144000050009008058eb0000c8b300304f980039
:101450009e407800414f9800ae509000514f980048
:10146000de409000614f9800ce409000714f980090
:1014700050c0b300604798006b00470080007800c0
:101480006e4090007b0307000080fa000000060019
:101490004600fa00501f9800611f9800721f9800c4
:1014a0000327980014279800252798005b0407005d
:1014b00020c4b300004f780050c1b300104798001b
:1014c0007e1890008e2090004808de00204798008b
:1014d0007e1890008e2090004008de003047980073
:1014e0007e1890008e2090004809dd004800de0044
:1014f00000007100c808de00404798007e18900088
:10150000504798005e189000ee1890004808de00e2
:10151000604798005e189000ee1890004008de00ca
:10152000704798005e189000ee1890004809dd00a2
:101530004800de0000007100c808de00004f98007f
:101540005e189000104f98001e209000ae20900072
:101550004808de00204f98001e209000ae2090002a
:101560004008de00304f98001e209000ae20900012
:101570004809dd004800de0000007100c808de00f8
:10158000404f98001e209000504f980000c8b300b4
:10159000205798009e407800315798002e419000c7
:1015a00042579800be409000515798004e4190001d
:1015b00062579800de409000715798006e4190008d
:1015c000025f9800fe409000115f98000e49900065
:1015d000225f98009e489000315f98002e41900055
:1015e000425f9800be409000515f98004e419000cd
:1015f000625f9800de409000715f98002e49900075
:1016000002679800be489000116798004e4990000c
:1016100022679800de4890003167980010c0b30040
:10162000406798007200470031c1b3000cfd07000d
:10163000700798007e009000005798007e00900090
:101640004800de001057980000c8b30050679800ab
:101650001e41780062679800ae4090007167980064
:101660003e419000026f9800ce409000116f9800ac
:101670005e419000226f9800ee409000316f98001c
:101680007e419000426f98008e489000516f980004
:101690001e499000626f9800ae409000716f9800f4
:1016a0003e41900002779800ce409000117798005c
:1016b0005e41900022779800ae4890003177980004
:1016c0003e49900042779800ce48900051779800ac
:1016d0005e4990006277980010c0b3007077980060
:1016e0008e509000017f98001e519000127f98004c
:1016f000500220000e004000800078001e40900044
:10170000dc0207000080fa00000006001400fa0066
:101710002057980050c0b300004f78002e50900022
:10172000e7004700030009008058eb0001c8b30040
:10173000714798009e407800014f9800104f980024
:101740006700470031c0b300c5fc070010079800d0
:101750001e009000404798001e0090004800de00e8
:10176000504798002e509000eb00470005000900fc
:101770008058eb0001c8b300314f98009e407800bc
:10178000414f9800504f9800de409000614f980004
:10179000ce409000714f980050c0b3006047980051
:1017a0006b004700800078006e409000b102070097
:1017b0000080fa00000006001400fa00205798008c
:1017c0000040eb00004f7800e700470003000900ed
:1017d0008058eb0000c8b300704798009e40780026
:1017e000014f9800ae509000114f980067004700dd
:1017f00031c0b3009afc0700100798001e0090004b
:10180000404798001e0090004800de0050479800b6
:10181000eb004700050009008058eb0000c8b3004a
:10182000304f98009e407800414f9800ae50900095
:10183000514f9800de409000614f9800ce409000dc
:10184000714f980050c0b300604798006b0047008c
:10185000800078006e409000860207000080fa0049
:10186000000006001400fa002057980040c0b300a2
:10187000004f7800e7004700030009008058eb00a4
:1018800000c8b300704798009e407800014f980050
:10189000ae509000114f98006700470031c0b30070
:1018a0006ffc0700100798001e009000404798004a
:1018b0001e0090004800de0050479800eb004700f3
:1018c000050009008058eb0000c8b300304f9800b5
:1018d0009e407800414f9800ae509000514f9800c4
:1018e000de409000614f9800ce409000714f98000c
:1018f00050c0b300604798006b004700800078003c
:101900006e4090005b0207000080fa0000000600b5
:101910000200fa00004f78001e407800b1fe070078
:101920001e40780079ff07000080fa0000000600e2
:101930000200fa00004f78001e4078009eff07006a
:101940001e407800c7ff07000080fa000000060074
:101950001200fa0000c4b300004f780060c0b3006a
:1019600010479800e7004700030009008058eb008b
:1019700000c8b300704798009e409000014f980047
:101980009e407800114f98006700470031c0b300b7
:1019900033fc0700100798001e0090004047980095
:1019a0001e0090004800de0050479800eb00470002
:1019b000050009008058eb0000c8b300304f9800c4
:1019c0009e409000414f98009e407800514f9800f3
:1019d000de409000614f9800ce409000714f98001b
:1019e00050c0b300604798006b004700800078004b
:1019f0006e4090001f0207000080fa000000060001
:101a00001200fa0000c4b300004f780070c0b300a9
:101a100010479800e7004700030009008058eb00da
:101a200000c8b300704798009e409000014f980096
:101a30009e407800114f98006700470031c0b30006
:101a400007fc0700100798001e0090004047980010
:101a50001e0090004800de0050479800eb00470051
:101a6000050009008058eb0000c8b300304f980013
:101a70009e409000414f98009e407800514f980042
:101a8000de409000614f9800ce409000714f98006a
:101a900050c0b300604798006b004700800078009a
:101aa0006e409000f30107000080fa00000006007d
:101ab0000000fa00a6ff0700d1ff07000080fa002f
:101ac000000006000c00fa0040c1b300004f78008f
:101ad00040c0b3001047980000c8b30060479800aa
:101ae0009e407800714798006600470021c0b3000f
:101af000dbfb0700100798001e009000404798008d
:101b00001e0090004800de005047980000c8b30057
:101b1000004f98009e407800114f9800ce409000f2
:101b2000214f9800de409000314f98006800470038
:101b3000800078001e409000ce0107000028ef00d2
:101b40000228ef000428ef000628ef000080fa00ca
:101b5000000006000400fa00e0c4b300004f780063
:101b600020c0b3001047980000c8b3002047980079
:101b70009e40780031479800a0c0b30010e8b7003d
:101b8000a60207000e80e800800078001e4090004a
:101b9000b8010700c0812000104078000080fb00e1
:101ba0008000eb00c801dd0002002000d081200091
:101bb000104078000080fb008000eb00c000dd00da
:101bc000000020000001710081817100e08120008f
:101bd000104078000082fb008002eb004828dd0006
:101be000c820de00810070004820dd000001710087
:101bf00081817100f0812000104078000080fb009e
:101c00008000eb00000071008180710000408800be
:101c10001140880000822000104078000080fb0006
:101c20008000eb00c801dd000200200010822000cf
:101c3000104078000080fb008000eb00c000dd0059
:101c400000002000000171008181710020822000cd
:101c5000104078000082fb008002eb004828dd0085
:101c6000c820de00810070004820dd000001710006
:101c70008181710030822000104078000080fb00dc
:101c80008000eb000000710081807100204088001e
:101c900031408800610207000080fa000000060061
:101ca0000000fa00a0c1b30010e8b70000c8b300fc
:101cb0005e01070050c1b3005c0107000080fa001c
:101cc000000006000000fa0040c0b30010e8b700b2
:101cd00000c8b3005501070080c1b30053010700dd
:101ce0000080fa00000006000000fa0040c0b300c7
:101cf00010e8b70000c8b3004c01070020c5b300ce
:101d00004a0107000080fa00000006000c00fa00fb
:101d100020c1b300004f780040c0b30010479800c6
:101d200000c8b300604798009e4078007147980053
:101d30006600470021c0b30049fb07001007980068
:101d40001e009000404798001e0090004800de00f2
:101d50005047980000c8b300004f98009e4078009c
:101d6000114f9800ce409000214f9800de40900027
:101d7000314f980070c0b30010e8b7002702070089
:101d800068004700800078001e409000390107007d
:101d90007d000700c0812000104078000080fb001b
:101da0008000eb00c801dd0002002000d08120008f
:101db000104078000080fb008000eb00c000dd00d8
:101dc000000020000001710081817100e08120008d
:101dd000104078000082fb008002eb004828dd0004
:101de000c820de00810070004820dd000001710085
:101df00081817100f0812000104078000080fb009c
:101e00008000eb0000007100818071000080fa000a
:101e1000000006000c00fa0030c1b300004f78004b
:101e200040c0b3001047980000c8b3006047980056
:101e30009e407800714798006600470021c0b300bb
:101e400007fb0700100798001e009000404798000d
:101e50001e0090004800de005047980000c8b30004
:101e6000004f98009e407800114f9800ce4090009f
:101e7000214f9800de409000314f980070c0b300b1
:101e800010e8b700e501070068004700800078000f
:101e90001e409000f70007003b000700c0812000b3
:101ea000104078000080fb008000eb00c801dd00de
:101eb00002002000d0812000104078000080fb004c
:101ec0008000eb00c000dd00000020000001710078
:101ed00081817100e0812000104078000082fb00c9
:101ee0008002eb004828dd00c820de008100700081
:101ef0004820dd000001710081817100f081200027
:101f0000104078000080fb008000eb0000007100b2
:101f1000818071000080fa00000006000800fa00cd
:101f20000080eb008080eb00008fbe000080eb00a3
:101f30008080eb00200798003107980073ff0700ae
:101f4000008fbe00b3ff07002007980031079800fc
:101f50001e00be00e00f5000e08f580005003a0060
:101f60002e009000be009000e00f5000e08f58005f
:101f7000020032000040eb000100370010c0b30047
:101f80000080fa00000006000000fa000868ef0078
:101f900056010700000320000100200099080700f7
:101fa0004d010700000000000cc8bf000004a200a3
:101fb0000004e00004003200410d800000272000f2
:101fc000808f5000f8ff3600480107000cc8bf00a2
:101fd0000004a2000004e00006003200410d800071
:101fe00000272000808f50000200360010c0b30090
:101ff00008e8b7000080fa0000000600000f780033
:102000000000fe00ffff37000000fa000080fa0029
:10201000000006000000fa00230007000d00070082
:1020200075000700d0000700e4000700fb00070070
:102030000b0107001d0107002c01070077010700b5
:102040009bfe07009ffe07001968ef000080fa0062
:10205000000006000000fa000001eb006004200010
:102060007105200003102000804978008149780024
:102070008249780000022300100888000621ef0042
:102080006821ef006a21ef000821ef0000702000b6
:10209000500888000c21ef000e21ef001021ef0006
:1020a0000080fa00000006000000fa006626ef003b
:1020b000e02f2c00103388007a26ef00703f2f00ad
:1020c000b03388008e26ef0000012f0050348800c6
:1020d0000040280010358800f0bf2f00f034880041
:1020e0000002200050368800c01f230030368800d0
:1020f000de26ef00f03c2d00d03688007426ef007d
:102100008826ef009c26ef00b026ef00c426ef00e3
:10211000d826ef00ec26ef007226ef008626ef00af
:102120009a26ef00ae26ef00c226ef00d626ef007b
:10213000ea26ef006826ef007c26ef009026ef00ed
:10214000a426ef00b826ef00cc26ef00e026ef0033
:10215000002c20005033880070232f00f0338800bb
:102160000001260090348800a626ef000021200000
:10217000d0358800003c200010378800010880001e
:10218000f00b200000816000600420007105200039
:102190000310200080497800814978008249780046
:1021a000a13d800000fc2f0000806000c000b30053
:1021b000a03d8800b13e8000f00f280080806000c4
:1021c0000030200001007000b03e88000008800050
:1021d000000178000260a00060042000710520006a
:1021e00003102000804978008149780082497800f6
:1021f0000080fa00000006000000fa0080002800bd
:10220000c01c88009a23ef0020022000001d8800d7
:10221000a223ef008960a9009960a80099e3a800b3
:102220009b43a8000080fa00000006000200fa00ac
:10223000004f780000000000d11c8000002020002a
:10224000008060000000e000fbff3a001e80fb0001
:10225000e01c880000000000d11c8000001020005d
:10226000008060000000e000fbff32000080fa0008
:10227000000006000600fa00204798002107980099
:102280000040eb00004f78000040eb00004f78006a
:10229000060037001e80fb00ae009000008040006a
:1022a00010407800e1ff07001e4fe8009e80fb0011
:1022b0002e4090000080fb000000e900808f50005d
:1022c000f4ff34000080fa00000006000400fa0069
:1022d000100798000040eb00104798000040eb000a
:1022e000004f78001e009000d7f9070010479800b3
:1022f0000040eb00004f78000d00370000000000a8
:10230000d11c800000202000008060000000e00060
:10231000fbff3a001e80fb009e0090000080400002
:10232000104078000080fb00e01c88001e4fe80091
:102330009e80fb001e4090000080fb000000e90032
:10234000808f5000edff340000000000d11c8000a1
:1023500000102000008060000000e000fbff320061
:102360000080fa00000006000000fa009021ef0053
:1023700000c42900900c880000012000a00c8800f7
:1023800041058000f0ff28000080600000c0a00030
:10239000400588008860a9009860a8000080fa00c5
:1023a000000006000000fa009021ef009860a800ed
:1023b00095e1a8000080fa00000006000000fa0085
:1023c00095e1a9009860a9000080fa0000000600cd
:1023d0000000fa009621ef0000012000000d8800a7
:1023e00051058000f0ff28000080600000c0a000c0
:1023f0005005880088e0a90098e0a9000080fa0054
:10240000000006000000fa009621ef0098e0a80006
:10241000a1e1a8000080fa00000006000000fa0018
:10242000a1e1a90098e0a9000080fa0000000600e0
:102430000000fa009a21ef009e21ef000001200029
:10244000100d88000080fa00000006000000fa006d
:102450009a21ef00a3e1a8000080fa000000060026
:102460000000fa00a3e1a9000080fa0000000600c5
:102470000000fa00ae21ef009b60a9008b60a9006c
:10248000a421ef00aa21ef0000032000700d8800b6
:102490000080fa00000006000000fa00a421ef000e
:1024a000afe1a8000080fa00000006000000fa007a
:1024b000afe1a9000080fa00000006000000fa0069
:1024c000a821ef00ac21ef0000032000800d880060
:1024d0000080fa00000006000000fa00a821ef00ca
:1024e000b1e1a8000080fa00000006000000fa0038
:1024f000b1e1a9000080fa00000006000000fa0027
:1025000000002800303a88004827ef0030a620005d
:10251000503a88004c27ef004e27ef005027ef007d
:102520005627ef005a27ef00f422ef000080fa0050
:10253000000006000000fa0010002000603a880049
:102540004627a80000642000010020002d07070096
:102550004627a90000000000303a800061006000ba
:102560000000e000fcff3200903880000080fa009c
:10257000000006000000fa00300328000018880060
:102580000223ef000423ef000623ef000a23ef00ed
:102590000c23ef001023ef001223ef001423ef00b1
:1025a0001623ef001823ef001c23ef002023ef0079
:1025b0002223ef000080fa00000006000000fa006d
:1025c00001e3a8000080fa00000006000000fa0005
:1025d00001e3a9000080fa00000006000400fa00f0
:1025e0000080eb008080eb00008fbe0000198000af
:1025f0008000eb00008fbe00101980008000eb000f
:10260000c000dd00000020001e1f70001e9770003b
:102610001e00be000080fa00000006000200fa0062
:102620000040eb00004f78001e80fb00c1812000bd
:102630000041eb00827078001e4fe800faff37007f
:102640000200fa00e0042000c02488009be4a900f6
:102650009b24a8009e24ef008a20a9009be4a800e8
:10266000a0248000004f7800030007008a20a90002
:102670000080fa00000006000200fa000040eb00b3
:10268000004f78009a44a8000000000007003700bf
:102690001e4fe8001e407800f44f500008003e0036
:1026a0000001200001002000d6060700d024800091
:1026b000640060000000e000f5ff3a000100370010
:1026c000000000009a64a9008a20a9009ee4a900e5
:1026d0009f44a900000a200001002000c90607004d
:1026e0000080fa00000006000200fa000040eb0043
:1026f000004f78009aa4a900000a200001002000e1
:10270000c00607009a04a800000000000700370078
:102710001e4fe8001e407800f44f500008003e00b5
:102720000001200001002000b6060700d024800030
:10273000610060000000e000f5ff3a000100370092
:10274000000000000002200001002000ad0607008c
:102750000080fa00000006000200fa000040eb00d2
:10276000004f78009a44a8000000000007003700de
:102770000001200001002000a20607001e4fe80013
:102780001e407800f44f500005003e00d024800029
:10279000640060000000e000f5ff3a00010037002f
:1027a000000000000080fa00000006000200fa00ad
:1027b0000040eb00004f78009a24a80000000000c1
:1027c000070037001e4fe8001e407800f44f50000d
:1027d00008003e00000120000100200089060700db
:1027e000d0248000620060000000e000f5ff3a00a5
:1027f000010037000000000000022000010020005e
:10280000800607000080fa00000006000400fa00bd
:10281000204798000000eb00000f78000000eb005c
:10282000000f78000e003700f02480006100600087
:102830000000e0000f003200401f20009e007800e2
:10284000808f500002003a0010c0b3003200370001
:1028500000012000010020006a0607001e0fe800aa
:10286000301f20009e007800808f5000eeff360061
:1028700001003700000000008a20a9002e409000cf
:102880000080fb00b02488000000eb00000f7800ff
:102890000f003700f1248000000024000080600059
:1028a0000000e0000f003200401f20009e00780072
:1028b000808f500002003a0010c0b30016003700ad
:1028c00000012000010020004e0607001e0fe80056
:1028d000301f20009e007800808f5000edff3600f2
:1028e0000100370000000000f124800000002800f3
:1028f000008060000000e000030032005eff07007f
:1029000020c0b300040037000002200001002000b6
:102910003c0607000040eb000080fa0000000600c3
:102920000400fa000000eb00000f78000040eb000c
:10293000204798009a64a800080037001e0fe8009e
:10294000007d20009e007800808f500008003e002f
:1029500000012000010020002a060700d02480008a
:10296000680060000000e000f4ff3a00010037005a
:1029700000000000a0248000204798002e40900016
:102980000080fa00000006000400fa000000eb00de
:10299000000f78000040eb00204798009a64a800e0
:1029a000080037001e0fe800007d20009e00780020
:1029b000808f500008003e00000120000100200030
:1029c00010060700d0248000680060000000e000ce
:1029d000f4ff3a000100370000000000a02480004e
:1029e000204798009a84a800000a200001002000d7
:1029f000040607002e4090000080fa000000060048
:102a00000400fa0020479800314798000040eb008e
:102a1000004f780034ff07002e4090000040400037
:102a20007aff07003e40900078ff07002eff070066
:102a30002e4090000080fb00000040000040780025
:102a40000004a00071ff0700cfff0700004f7800cf
:102a500009ff07001e4078000080fa000000060011
:102a60000400fa00004f78001147980022479800b0
:102a70001dff07001e4078000040400063ff070074
:102a80001e40900061ff07002e4090005fff07008e
:102a9000f9fe07000080fa00000006000800fa00b6
:102aa000889fbe008a9fbe008c9fbe0041098000a7
:102ab000f07f2e00008060004009880041098000fe
:102ac00000302000010070004009880041098000aa
:102ad000f0f32f00008060004009880028a1a900c1
:102ae0002881a9002841a900002020009009880021
:102af00031e1a90031c1a8003181a8003141a8000d
:102b00003121a80031a1a8003101a900810980006c
:102b1000f0f92f000080600080098800a109800082
:102b2000f0ff230000806000a0098800a109800058
:102b3000000c200001007000a0098800a10980009d
:102b4000c003200001007000a0098800a0098000d7
:102b50003000b300a00988002a61ef0010002000b7
:102b6000700988002de1a8002dc1a8002d81a800c2
:102b70002da1a90061098000006020000100700003
:102b8000600988002d01a80029e1a8000088230021
:102b9000110020008c010700008823001100200094
:102ba000890107003203200001002800010f78008e
:102bb0004100200011079800a00180009e019000b4
:102bc0009e007800a301880082087800a001880098
:102bd00050032000010020007b0107002203200099
:102be00001002800210798004100200031079800cb
:102bf000a0018000be019000ae009000a3018800fb
:102c000082087800a0018800500320000100200005
:102c10006d010700820320000c0028004d002000f9
:102c2000a00180008d0178008c007800a30188004d
:102c300082087800a00188005003200001002000d5
:102c400061010700c20020000a0028004b0020009c
:102c5000a00180008b0178008a007800a301880021
:102c600082087800a00188005003200001002000a5
:102c700055010700620020000800280049002000dc
:102c8000a00180008901780088007800a3018800f5
:102c900082087800a0018800500320000100200075
:102ca000490107007800070010c0b3004f06be00be
:102cb0004f05be004f04be000080fa000000060071
:102cc0000400fa00000f7800110798000a0037008e
:102cd0001e007800104078000000fb000000e000bb
:102ce000110032001e007800104078001e0fe8002e
:102cf00010000700000000001e00900000f0a70078
:102d00000000ea000000ea004f00de00004078000a
:102d10009e0090008100e900110798000004e00087
:102d2000ebff3a0001003700000000000080fa00cd
:102d3000000006000200fa00889fbe00004f7800e5
:102d40001e00fb00ea0f50000b003200ea0f50009b
:102d500003003c00e80f50000e0032001400370062
:102d6000ec0f500010003200ed0f500010003a0040
:102d700064000700410037001ac8bf000004e000eb
:102d800002003a00050107003c003700f800070088
:102d90003a0037007c00070000c2b300e5ff0700df
:102da000790007003500370037000700330037008f
:102db0001bc8bf00f04f500020003a001b68ef0016
:102dc0001ac8bf000004e0000f003a00020c200007
:102dd0000400280045002000a00180008501780043
:102de00084007800a301880082087800a001880090
:102df0005003200001002000f300070010c0b300c2
:102e00001ae8b7000d00370004082000020028006f
:102e100043002000a0018000830278008200780037
:102e2000a501880084087800a001880050032000d4
:102e300001002000e40007001a68ef001e01fb00fb
:102e40002800280049002000a001800089017800a6
:102e500088007800a301880082087800a00188001b
:102e60005003200001002000d70007001bc8bf004e
:102e70000040e8001be8b700000000004f04be005f
:102e80000080fa00000006000000fa00889fbe00e3
:102e9000130020000000280041002000a201800053
:102ea0000102780000007800a4018800030878007f
:102eb000a2018800a088200001002000c2000700b5
:102ec000220020000800280049002000a001800006
:102ed0008901780088007800a301880082087800c2
:102ee000a0018800a088200001002000b600070093
:102ef0001a68ef001b68ef004f04be000080fa0064
:102f0000000006000000fa00a481200014427800ae
:102f10000404e0000d003a0004082000020028002c
:102f200043002000a0018000830278008200780026
:102f3000a501880084087800a001880050032000c3
:102f400001002000a00007000c003700030c200047
:102f50000000280041002000a2018000010278004a
:102f600000007800a401880003087800a20188000e
:102f70005003200001002000930007001b68ef00b1
:102f80000080fa00000006000200fa00b68120006e
:102f9000164378000604e00028003a001ac8bf0073
:102fa0000004e0000f003a00020c2000040028009a
:102fb00045002000a0018000850178008400780091
:102fc000a301880082087800a00188005003200037
:102fd000010020007c00070010c0b3001ae8b70011
:102fe0000d003700040820000200280043002000e4
:102ff000a00180008302780082007800a50188008b
:1030000084087800a00188005003200001002000ff
:103010006d0007001a68ef000040eb00004f7800d9
:1030200002003700190007001e4fe8001e4078001c
:10303000ee4f5000fbff360012003700b281200037
:10304000124178000241e90082417800b1812000fc
:103050008348780003012000000028004100200080
:10306000a20180000102780000007800a40188001d
:1030700003087800a201880050032000010020000e
:10308000510007000080fa00000006000000fa006e
:10309000889fbe008a9fbe004301200000002800d8
:1030a00041002000a20180000102780000007800a9
:1030b000a401880003087800a201880050032000c2
:1030c00001002000400007001bc8bf000040e800ce
:1030d0001be8b7001bc8bf00f04f500020003a00ab
:1030e0001b68ef001ac8bf000004e0000f003a00a0
:1030f000020c20000a0028004b002000a0018000e4
:103100008b0178008a007800a3018800820878008b
:10311000a001880050032000010020002a000700c1
:1031200010c0b3001ae8b7000d00370002082000f5
:103130000800280049002000a001800089017800d3
:1031400088007800a301880082087800a001880028
:1031500050032000010020001b0007001a68ef0048
:103160004f05be004f04be000080fa0000000600bc
:103170000200fa000040eb00004f78000200370028
:1031800081ff07001e4fe8001e407800ef4f5000ff
:10319000fbff36000080fa00000006000200fa0083
:1031a0000040eb00004f780002003700b7ff070037
:1031b0001e4fe8001e407800ef4f5000fbff360026
:1031c0000080fa00000006000400fa00008fbe0034
:1031d00005003700000000000081eb008081eb005b
:1031e0001e0f41005e9749001e00be00e00f500018
:1031f000e08f5800f7ff3a000080fa000000060058
:103200000200fa00004f78001e4078000004e00041
:103210000d003200f20020000400280045002000cc
:10322000a00180008501780084007800a301880057
:1032300082087800a00188005003200001002000cf
:10324000e1ff07000c003700c40020000200280046
:1032500043002000a00180008302780082007800f3
:10326000a501880084087800a00188005003200090
:1032700001002000d4ff07000080fa0000000600d3
:103280001000fa0030079800420798005307980092
:1032900064079800750798000040eb00004f780025
:1032a0002cfa0700024080001340800012079800ab
:1032b000230798003e0090008000eb004ef50700c9
:1032c00032f50700300798000040eb0010479800e7
:1032d0003100370008c8bf000004e00021003200c0
:1032e0001e4090000004e0001e003a0019fa07009a
:1032f00000408000114080000001be004206b10085
:103300000380b1001e009000ae009000800f5100bd
:10331000818f59000a003600004080001140800073
:103320000001be004206b0000380b0001e00900005
:10333000ae009000800f5100818f590004003900c9
:103340001e4090000040e80010479800120037002f
:1033500010c0b300004f78001968ef000868ef0054
:103360000d00370008c8bf000004e000080032006c
:103370001e409000e14f50000500360010c0b30021
:10338000004f780010c0b30019e8b7000200370002
:1033900010c0b300004f78001e4078000004a20067
:1033a0000004e000cbff3a000080fa0000000600b5
:1033b0001400fa00500798006207980073079800fd
:1033c000040f9800150f98000040eb00004f7800a4
:1033d0006000b8001007980021079800ddf9070089
:1033e0000240800013408000320798004307980095
:1033f000de009000000822000088b900000078007c
:103400004800de008000eb001007980021079800bc
:103410000040eb00104798003100370008c8bf009b
:103420000004e000210032001e4090000004e00093
:103430001e003a00c7f907000040800011408000dc
:103440000001be004206b1000380b1003e009000c2
:10345000ce009000800f5100818f59000a00360085
:1034600000408000114080000001be004206b00014
:103470000380b0003e009000ce009000800f51000d
:10348000818f5900040039001e4090000040e80080
:10349000104798001200370010c0b300004f7800aa
:1034a0001968ef000868ef000d00370008c8bf007a
:1034b0000004e000080032001e409000e14f500080
:1034c0000500360010c0b300004f780010c0b300f4
:1034d00019e8b7000200370010c0b300004f7800b1
:1034e0001e4078000004a2000004e000cbff3a0078
:1034f0000080fa00000006001600fa00300798006d
:1035000041079800520798006307980074079800d5
:10351000050f9800160f9800270f98000040eb0049
:10352000004f78000040eb0010479800ce0090005c
:1035300000c820000088b900000178003e0090001b
:103540006000b9000000780000014100be0090005a
:1035500000c820000008b800010141008200780086
:103560004809dd004800de0000007100c808de00e8
:10357000100798002107980052f90700040037004f
:1035800050f907001e4090000040e80010479800e6
:1035900009c8bf000004a2000004e00003003200dc
:1035a0001e4090000004e000f5ff32000040eb00f8
:1035b0001047980018c8bf00801f78001e009000b8
:1035c000ae009000809fbe005e009000ee00900074
:1035d000809fbe001e039000ae0390005e0290002c
:1035e000ee0290001e099000ae0990007e0090004f
:1035f0008e0890004df50700ea875700004f7800cd
:103600005400370008c8bf000004e0004400320046
:103610001e4090000004e00041003a004df9070010
:103620001e009000ae0090006a014000e08148005a
:103630000040800011408000800f5100818f5900b0
:103640001b0039001e009000ae0090006a0150007f
:10365000e08158000040800011408000800f510040
:10366000818f590012003e001e009000ae009000b5
:103670006a014000e0814800204080003140800025
:10368000800f5100818f5900090039001e00900001
:10369000ae0090006a015000e08158002040800098
:1036a00031408000800f5100818f59001700360093
:1036b00018c8bf00801f78001e009000ae00900068
:1036c000809fbe005e009000ee009000809fbe00d4
:1036d0001e039000ae0390005e029000ee02900088
:1036e0001e099000ae0990007e0090008e089000a8
:1036f0000ef50700ea875700004f78001e40900043
:103700000040e800104798001200370010c0b300d6
:10371000004f78001968ef000868ef000d003700cf
:1037200008c8bf000004e000080032001e409000fe
:10373000e14f50000500360010c0b300004f780084
:1037400010c0b30019e8b7000200370010c0b30082
:10375000004f78001e4078000004a2000004e00042
:10376000a8ff3a000080fa00000006001600fa00e8
:10377000500798006107980072079800030f98009f
:10378000140f9800250f98000040eb00004f7800c0
:103790006000b8001007980021079800edf80700b6
:1037a00002408000134080003207980043079800d1
:1037b000ee00900000c820000088b90000017800e9
:1037c0005e0090006000b900000078000001410038
:1037d000de00900000c820000008b8000101410090
:1037e00082007800c809dd004800de00008071001a
:1037f000c808de0010079800210798000040eb0081
:10380000104798003100370008c8bf000004e000ee
:10381000210032001e4090000004e0001e003a002b
:10382000ccf8070000408000114080000001be007d
:103830004206b1000380b1003e009000ce0090002f
:10384000800f5100818f59000a003600004080002f
:10385000114080000001be004206b0000380b000ad
:103860003e009000ce009000800f5100818f5900e3
:10387000040039001e4090000040e8001047980006
:103880001200370010c0b300004f78001968ef0035
:103890000868ef000d00370008c8bf000004e00012
:1038a000080032001e409000e14f50000500360035
:1038b00010c0b300004f780010c0b30019e8b70083
:1038c0000200370010c0b300004f78001e4078009f
:1038d0000004a2000004e000cbff3a000080fa00e0
:1038e000000006000800fa00200798003107980041
:1038f0000000eb00000f78000000eb0010079800bc
:1039000030c0b300a8000700000f780040c0b3002b
:10391000a5000700100798001e0078006101b8009c
:103920002e009000be009000800f5100818f590042
:10393000070036001e0090006101b8002e009000c4
:10394000be009000800f5100818f590002003e00a0
:1039500010c0b300010037000040eb000080fa0007
:10396000000006000a00fa00004f98006000b8004e
:1039700020079800310798006000b800008fbe0053
:103980000e4890000080fb00e30f50002a00320038
:10399000e30f500003003c00e10f5000080032002c
:1039a0007e003700e50f50007b003200e50f50002d
:1039b0003f003500e60f5000590032007700370015
:1039c0000e4890000701070000000000413680000b
:1039d00000002200008060000000e000fbff3200d9
:1039e0009afa070000000000413680000000220023
:1039f000008060000000e000fbff3a0098fa07003a
:103a0000d00c80008000eb00200798003107980060
:103a10002e009000be0090008100d1000080d300f5
:103a200075f30700020020008326240015f3070029
:103a3000008fbe00590037000e489000e9000700d3
:103a4000000000002133800000002400008060009e
:103a50000000e000fbff32007cfa070000000000dd
:103a60002133800000002400008060000000e0009e
:103a7000fbff3a007afa0700d00c80008000eb00d0
:103a800020079800310798002e009000be0090009b
:103a90008100d1000080d30057f30700020020000e
:103aa00083262400f7f20700008fbe003b0037009a
:103ab0000e489000cb000700000000000035800099
:103ac000620060000000e000fcff32005ffa0700c7
:103ad0000000000000358000620060000000e0008f
:103ae000fcff3a005efa0700d00c80008000eb007b
:103af00020079800310798002e009000be0090002b
:103b00008100d1000080d3003bf3070002002000b9
:103b100083262400dbf20700008fbe001f00370061
:103b20000e489000af000700000000004136800002
:103b300000002100008060000000e000fbff320078
:103b400042fa07000000000041368000000021001a
:103b5000008060000000e000fbff3a0040fa070030
:103b6000d00c80008000eb002007980031079800ff
:103b70002e009000be0090008100d1000080d30094
:103b80001df307000200200083262400bdf2070079
:103b9000008fbe0001003700000000001e00be00c4
:103ba0000080fa00000006000800fa006047980054
:103bb0006000b80010079800210798000000eb0093
:103bc000000f78006e4090000080fb00e30f500073
:103bd00029003200e30f500003003c00e10f5000c9
:103be000080032007c003700e50f500079003200f9
:103bf000e50f50003d003500e60f50005800320040
:103c0000750037006e40900076000700000000004d
:103c10004136800000002200008060000000e000cb
:103c2000fbff320009fa0700000000004136800067
:103c300000002200008060000000e000fbff3a006e
:103c400007fa0700d00c80008000eb0010079800f6
:103c5000210798001e009000ae0090008100d10066
:103c60000080d300a20320000300200037f30700e8
:103c7000000f7800580037006e4090005900070090
:103c8000000000000135800000102000008060006e
:103c90000000e000fbff3200ecf90700000000002c
:103ca0000135800000102000008060000000e0006e
:103cb000fbff3a00eaf90700d00c80008000eb001f
:103cc00010079800210798001e009000ae00900099
:103cd0008100d1000080d300a20320000300200057
:103ce0001af30700000f78003b0037006e40900089
:103cf0003c000700000000000135800000082000a3
:103d0000008060000000e000fbff3200cff90700f8
:103d100000000000013580000008200000806000e5
:103d20000000e000fbff3a00cdf90700d00c800056
:103d30008000eb0010079800210798001e009000fb
:103d4000ae0090008100d1000080d300a2032000cb
:103d500003002000fdf20700000f78001e0037006e
:103d60006e4090001f0007000000000041368000f8
:103d700000002100008060000000e000fbff320036
:103d8000b2f9070000000000413680000000210069
:103d9000008060000000e000fbff3a00b0f907007f
:103da000d00c80008000eb001007980021079800dd
:103db0001e009000ae0090008100d1000080d30072
:103dc000a203200003002000e0f20700000f7800ab
:103dd00001003700000000001e0078000080fa009b
:103de000000006000200fa00004f78001e80fb0071
:103df000e30f500016003200e30f500003003c00b8
:103e0000e10f50000800320031003700e50f50008c
:103e10002e003200e50f500017003500e60f50006d
:103e20001f0032002a003700ca06a9000005200042
:103e300001002000f3000700ca06a800000a2000c5
:103e400001002000ef000700ca06a900200037008b
:103e50006746a9000005200001002000e9000700d6
:103e60006746a800000a200001002000e5000700c6
:103e70006746a90016003700dfa6a900000520004c
:103e800001002000df000700dfa6a800000a2000d4
:103e900001002000db000700dfa6a9000c003700ae
:103ea000ca26a9000005200001002000d500070057
:103eb000ca26a800000a200001002000d100070047
:103ec000ca26a90000000000010037000000000021
:103ed0000080fa00000006000200fa00004f78009f
:103ee00030cdb3009e40780080cf50000b003500ed
:103ef000d0c2b3009e40780080cf500007003c0045
:103f00001e00fb006900b90080007800c05d200041
:103f10000080400090408800000037000080fa00d8
:103f2000000006000200fa00004f780030cdb30018
:103f30009e40780080cf50000b003500d0c2b30007
:103f40009e40780080cf500009003c001e00fb001e
:103f50006900b90080007800c05d2000008040004a
:103f6000a040880003003700000000000100370077
:103f7000000000000080fa00000006000200fa00c5
:103f8000004f780030cdb3009e40780080cf5000c5
:103f90000b003500d0c2b3009e40780080cf5000a7
:103fa00009003c001e00fb006900b9008000780099
:103fb000c05d200000804000b04088000300370052
:103fc0000000000001003700000000000080fa003f
:103fd000000006000000fa00c05d2000904088004c
:103fe0000080fa00000006000000fa00c05d20001a
:103ff000a04088000080fa00000006000000fa00df
:10400000f4ff0700f8ff07000080fa000000060038
:104010000000fa00c05d2000b04088000080fa0077
:10402000000006000000fa000080fa000000060010
:104030000400fa00f7f707006000b800008fbe0028
:104040007a66a9007b46a9007b66a90003003700b9
:104050000000000001003700000000005040800018
:10406000ef0f50002900360050408000f10f500043
:1040700026003e0050408000c18120006140780051
:104080000080fb008000eb00c801dd000200200082
:10409000504080000000e900c181200061407800ac
:1040a0000080fb008000eb00c000dd00000020006d
:1040b0000001710081817100504080000080e900a2
:1040c000c1812000614078000082fb008002eb008b
:1040d0004828dd00c820de00810070004820dd0097
:1040e0000001710081817100504080006300500028
:1040f000c1812000614078000080fb008000eb005f
:10410000001f710001977100d4ff37001e00be0030
:10411000e00f5000e08f5800cdff3200504080008b
:104120008000eb00be0f5000ae8f5800caff390070
:1041300000402200410f200032000700c7ff370077
:104140000200fa0000000000d1c4b30090c2b30026
:104150002bfa07000004e000fbff3a0012c0b30096
:1041600081c1b30090c2b3003dfa07000000000017
:10417000f1c4b30090c2b30021fa0700e44f50002d
:10418000fbff3a0021c6b30090c2b3001cfa07003f
:10419000004f780072c0b30051c1b30090c2b300a9
:1041a0002ffa07001e4078000080fa000000060089
:020000040000fa
:1041b000120800000600000082000000dc05dc00a0
:1041c00005dc05001c080000f40100008000000070
:1041d0000a0800000800000080000000000800003d
:1041e0000a00000080000000180800000200000023
:1041f000800000001a08000002000000800000009b
:0442000000000000ba
:020000040000fa
:10420400f03fb1000180b10006003500ee03090063
:1042140000000000403fb1000180b100fbff3d0001
:104224001000b000203fb0000200350000800900fb
:0842340000000000000006007c
:020000040000fa
:020000040015e5
:047e0000ffffff0081
:020000040000fa
:020000040015e5
:047e300089ffff00c7
:020000040000fa
:020000040015e5
:047e3800abffff009d
:020000040000fa
:020000040015e5
:047e40009fffff00a1
:020000040000fa
:020000040015e5
:047e4800ffffff0039
:020000040000fa
:020000040015e5
:047e5000deffff0052
:020000040000fa
:020000040015e5
:047e5800ffffff0029
:020000040000fa
:020000040100f9
:04300000ffffff00cf
:00000001FF
